:020000040000FA
:0400000069EF07F0AD
:08000800056ED8CF06F0E0CF31
:1000100007F00001E9CF0DF0EACF08F0E1CF09F0D9
:10002000E2CF0AF0D9CF0BF0DACF0CF0F3CF14F017
:10003000F4CF15F0FACF16F000C00FF001C010F0A9
:1000400002C011F003C012F004C013F0A0AA2CEFFC
:1000500000F0A1BAFEEF05F00FC000F010C001F0F3
:1000600011C002F012C003F013C004F00DC0E9FF8C
:1000700008C0EAFF088E09C0E1FF0AC0E2FF0BC01A
:10008000D9FF0CC0DAFF14C0F3FF15C0F4FF16C08F
:10009000FAFF055007C0E0FF06C0D8FF1000F76A5E
:1000A000AE0FF66E000EF7220900F55012000403A1
:1000B000000000000000000000000000000008AE8A
:1000C00003D0F2CF0EF0F29EF76AE00FF66E000E4C
:1000D000F7220900F55008AE02D00EBEF28E1200D3
:1000E00040000800000000000000000000000000C8
:1000F0000000000000000000000000000000000000
:10010000F76A100FF66E010EF7220900F550120083
:100110000600FF0901A101190129081580257F7535
:10012000089502810219012908750895029102C0FB
:10013000F76A400FF66E010EF7220900F550120023
:100140000000F76A520FF66E010EF7220900F55013
:1001500012002000F76A640FF66E010EF722090004
:10016000F550120009022900010100C03209040003
:100170000002030000000921000100012220000705
:100180000581030800FA0705010308000A00F76A61
:100190009E0FF66E010EF7220900F55012000100C5
:1001A000F76AB00FF66E010EF7220900F550120043
:1001B0001201100100000040610420000001010252
:1001C0000001F76AD20FF66E010EF7220900F55012
:1001D00012000403090408034300430053001A03F8
:1001E0004300430053002000480049004400200021
:1001F000440065006D006F006D926994689409EF8A
:1002000006F06A6A689212EF06F04C6A4C520AE1F4
:10021000036A4C50270FE96E000E0320EA6EEF6A66
:100220004C2AF4D71A6A010E1B6E196A000C010ED3
:10023000556E55500F080EE3700E5524016E0F0ECB
:10024000036ED8B0032A01C0E9FF03C0EAFFEF6ADA
:10025000552AEFD71E6A1D6A000C400E0401016F7B
:10026000050E036F026B880E006F046B050E076F9F
:10027000400E066F0001000C6A6A686A9F0E6B6E82
:10028000390E696E6E6AC1DFD2DF160E706E68A617
:1002900002D06896FCD76D98E0DF030E1F6E18EF52
:1002A00006F0698468986D821EEF06F0689C24EF62
:1002B00006F070A002D0D1DF7090689A2AEF06F0A5
:1002C00050C020F0000CFF0E206E000C4E6A26522B
:1002D0003EE04E503F083BE31C50FC0F2BE2040F66
:1002E000B1EF01F0036A2550F2CF50F0F29E32DFF9
:1002F00050BEF28E4F6E1ED0036A2550F2CF50F0E2
:10030000F29EFEDE50BEF28E4F6E14D0036A255070
:10031000F2CF50F0F29E55DF50BEF28E4F6E0AD0F3
:10032000036A2550F2CF50F0F29E3ADF50BEF28EB3
:100330004F6E00D0252A26064E504E2A036A400FE3
:10034000E96E050E0320EA6E4FC0EFFFC0D72652BC
:1003500004E14E50400801E0196A4EC050F0B0DF91
:10036000000CE824F76AF7367D0FF66E030EF722CD
:100370000A00F550FA6E0800F550F96EE402F80232
:100380000C032003256A1C6A05010351010A0001C0
:1003900009E0030A0CE0010A0DE0220A22E0030A48
:1003A00032E058D0120E266E030E1C6E55D0290E68
:1003B000266E52D0020E1C6E036A05010251210FF7
:1003C000E96E000E0320EA6EEFCF25F0036A255098
:1003D000F2CF4EF0F29E0001F4DE4EBEF28E266E9B
:1003E0003BD0120E256E253C01D00BD0036A255060
:1003F000F2CF4EF0F29EAEDE4EBEF28E266E2CD0C6
:1004000002D061DF35D0D89005010435036AF2CF00
:100410004EF0F29E00018CDE0900F5CF03F04EBED7
:10042000F28E256E253C01D013D0010E1C6ED890A3
:1004300005010435036AF2CF4EF0F29E000181DE21
:100440000900F5CF03F04EBEF28E266E05D002D025
:100450003ADF0ED038DF0CD00501075305E12650F6
:10046000065D02E206C526F0010E196E00012EDFC0
:10047000000C4D5204E1040E1F6ED9DEC1D0050EF2
:100480001F6E506E800E4F6E010E4E6E4E500F0856
:10049000D8A0B6D0516A036A4E50F2CF55F0F29E02
:1004A000FEDD55BEF28E000A51E0040E516ED8906A
:1004B0004E34036AF2CF55F0F29E01DE0900F5CF0B
:1004C00003F055BEF28E526E03C053F04E50080D2D
:1004D000F350010F016E040E036ED8B0032A01C061
:1004E000E9FF03C0EAFF52C0EFFF4E50080DF35082
:1004F000020F016E040E036ED8B0032A01C0E9FF9B
:1005000003C0EAFF50C0ECFFED524FC0EFFFD890A0
:100510004E34036AF2CF55F0F29ED1DD0900F5CFDB
:1005200003F055BEF28E4F2603505022880E546EB3
:1005300053B0548053B254824E50080DF3CF01F0A3
:10054000040E01C0E9FFEA6E54C0EFFF036A4E508B
:10055000F2CF55F0F29EA3DD55BEF28E000A31E0D7
:1005600051824E50080DF350060F016E040E036EBB
:10057000D8B0032A01C0E9FF03C0EAFF50C0ECFF76
:10058000ED524FC0EFFFD8904E34036AF2CF55F0D2
:10059000F29E95DD0900F5CF03F055BEF28E4F2691
:1005A000035050224E50080DF350040F016E040EFC
:1005B000036ED8B0032A01C0E9FF03C0EAFF400E72
:1005C000EF6E5150060802E10E0E516E036A4E5056
:1005D000F2CF55F0F29E63DD55BEF28E020801E0C7
:1005E0005188700E4E24016E0F0E036ED8B0032A90
:1005F00001C0E9FF03C0EAFF51C0EFFF4E2A46D712
:100600004CEF03F00501015100010DE0010A14E077
:10061000020A1EE0060A27E0030A2CE00E0A2CE07C
:10062000010A30E03DD01BC040F50501416B020ED0
:10063000506E000145DE36D00501022D06D0010EB8
:100640001B16506A00013CDE02D000013CDE2AD0BD
:100650000501022D05D01B82506A000131DE02D057
:10066000000131DE1FD0020E196E02C524F0506A5F
:1006700027DE18D087DE16D01AC040F5010E506E66
:100680001FDE10D005010251010808E302C51AF06F
:1006900002C54DF00001EDD6506A12DE000102D015
:1006A00012DE00D082EF04F01AC04DF005010151B6
:1006B000000107E00A0A0DE0010A2DE00D0A3DE005
:1006C0003ED00501406B416B020E506E0001F8DD1B
:1006D00038D04D521EE0010E4D5C036AF2CF4FF050
:1006E000F29E55DD4FBEF28E016E0501045DD8A06D
:1006F00002D000010ED0036A0451270FE96E000EEC
:100700000320EA6EEFCF40F5010E506E0001D8DDF8
:1007100001D0D9DD16D04D520EE0036A0501045117
:10072000270FE96E000E0320EA6E02C5EFFF506A44
:100730000001C6DD01D0C7DD04D024DE02D0C3DD58
:1007400000D082EF04F04E904DBE4E804D9E4EA0E4
:1007500010D0036A4D50F2CF4FF0F29EA0DC4FBE96
:10076000F28E000A02E1000E01D0010E016E10D0DF
:100770000FD0036A4D50F2CF4FF0F29E90DC4FBE87
:10078000F28E000A02E1000E01D0010E016E00D0CF
:100790003AEF04F04E904DBE4E804D9E4EA010D0CC
:1007A0004D50080DF350040F016E040E036ED8B0C7
:1007B000032A01C0E9FF03C0EAFF880EEF6E09D0EB
:1007C0004D50080DF3CF01F0040E01C0E9FFEA6EB1
:1007D000EF6A49EF04F04E904DBE4E804D9E4EA004
:1007E00010D04D50080DF350040F016E040E036E2F
:1007F000D8B0032A01C0E9FF03C0EAFF840EEF6E00
:100800000AD04D50080DF3CF01F0040E01C0E9FFEE
:10081000EA6E840EEF6E4FEF04F04E904DBE4E80A8
:100820004D9E4EA010D04D50080DF350040F016E98
:10083000040E036ED8B0032A01C0E9FF03C0EAFF2B
:10084000EFCF4FF00AD04D50080DF3CF01F0040E5A
:1008500001C0E9FFEA6EEFCF4FF04FAE02D04FB4C8
:1008600002D0000E01D0010E016E59EF04F004C554
:100870004DF069D7015229E005010151010A00013B
:1008800005E0020A09E0030A0DE01DD004C54DF0A1
:1008900081D7506A15DD19D004C54DF09CD7506A38
:1008A0000FDD13D00501406B416B04C54DF0000115
:1008B000B4D7015204E0010E0501406F0001020EA1
:1008C000506EFEDC02D0FFDC00D082EF04F00501A8
:1008D000015100D00001F7DC00D082EF04F0196A6A
:1008E000050100517F0B000107E0010A06E0030A41
:1008F00005E0230A04E004D085D6D6D6B8D7E7D7DA
:10090000E2DC00D0A9EF05F04D50080DF3CF01F067
:10091000040E01C0E9FFEA6EEFCF4FF04E5002081F
:1009200006E14FAC02D04E6A02D0010E4E6E4E5020
:10093000030812E1840E4F6E4D50080DF350040F62
:10094000016E040E036ED8B0032A01C0E9FF03C094
:10095000EAFF840EEF6E09D04E2C03D0C80E4F6E06
:1009600004D04E5202E1880E4F6E036A010E026EF1
:100970004D50006E05E0D89002360336002EFBD7AE
:100980000250FF0A006EFF0E031A00501D1603509E
:100990001E16D8904D34036AF2CF52F0F29E5FECEF
:1009A00000F00900F5CF03F052BEF28E506E03C086
:1009B00051F04D50080DF350010F016E040E036EFF
:1009C000D8B0032A01C0E9FF03C0EAFF50C0EFFF1F
:1009D00051B04F8051B24F824D50080DF3CF01F00E
:1009E000040E01C0E9FFEA6E4FC0EFFF000C4D504E
:1009F000080DF350040F016E040E036ED8B0032AE5
:100A000001C0E9FF03C0EAFFEFCF51F051BE5BD058
:100A10004D50080DF350050F016E040E036ED8B053
:100A2000032A01C0E9FF03C0EAFF4EC0EFFF5050A8
:100A3000020816E14D50080DF350040F016E040E2C
:100A4000036ED8B0032A01C0E9FF03C0EAFFEFCF6D
:100A500051F051AC02D0506A02D0010E506E13D04A
:100A60005050040810E14D50080DF3CF01F0040E72
:100A700001C0E9FFEA6EEFCF51F051AC03D0010E97
:100A8000506E01D0506A502C03D0C80E516E04D065
:100A9000505202E1880E516E4FB051804FB25182D8
:100AA0004D50080DF350040F016E040E036ED8B0C4
:100AB000032A01C0E9FF03C0EAFF51C0EFFF010EA6
:100AC000016E03D000D0000E016E000C4D5203E108
:100AD0002DEC01F00FD0036A010E026E4D50006E36
:100AE00005E0D89002360336002EFBD702501D12C7
:100AF00003501E12000C4EC06EFF4E5203E0040E57
:100B00001F6E02D0020E1F6E8BEF05F01A6A196A73
:100B100024C04EF0F0D798EF05F04D5209E1192CA2
:100B200003D066EC01F004D01950020801E1EED7C1
:100B3000000C6C304C6E4C324C321F0E4C166C520A
:100B40003BE1040100513C0B34081BE1046B000144
:100B5000C6D6203C05D04D6A030E4E6ED5DE0ED0B3
:100B60004D6A020E4E6ED0DE2050FE0807E04D6A40
:100B70004F6A20C04EF0040E506E39DF6D9819D0C8
:100B8000040100513C0B040815E14D6A00019EDF91
:100B90004D6A020E4E6EB8DE2050FE080AE0203C80
:100BA00001D007D04D6A4F6A20C04EF0010E506E42
:100BB0001EDF040120D000016C50040812E1FF0E7A
:100BC000206E4D6AAADF203C01D008D04D6A4F6AE2
:100BD00020C04EF0020E506E0ADF02D02DEC01F064
:100BE00009D06CB404D04CC04DF070DF03D04CC0C1
:100BF0004DF093DF040100012FEF06F01F5201E1D9
:100C00002FD068522DE068A404D069A402D0FCEF74
:100C100000F06DA201D024D068A204D069A202D055
:100C200001EF01F068A004D069A002D03CEF01F010
:100C300068A804D069A802D051EF01F068AC04D0D4
:100C400069AC02D056EF01F068AA04D069AA02D0BC
:100C500059EF01F068A604D069A602D06AD7689659
:100C6000A19A2CEF00F06D6A696A080E6F6E9450BD
:100C70003009946E1F6A186AF2BE188EF29E05EC57
:100C800001F018BEF28E1E6A1D6A6AEF06F0186A3D
:100C9000F2BE188EF29E05EC01F018BEF28E6D6A5F
:100CA000140E6F6E696A6D86010E1F6E5BEF06F0A3
:100CB0006DB601D0ECD71F2C0BD06DBA09D0686A85
:100CC000696AA08AC00EF212110E696E020E1F6EC2
:100CD000000CC9D7EDDF1F500208FCE1A6EF07F0BA
:100CE0001A5202E10400FCD7A8EF07F0EA6A3A0EB4
:100CF000E96EEF500EE00F0E016E006A002EFED777
:100D0000012EFBD78F0E006E002EFED70000EF2EB7
:100D1000F2D7BFEF07F03A50080DF350040F016E01
:100D2000040E036ED8B0032A01C0E9FF03C0EAFF36
:100D3000EFCF42F042BE45D03A50080DF350060FB7
:100D4000016E040E036ED8B0032A01C0E9FF03C090
:100D5000EAFFECCF03F0ED52EFCF43F003C044F0D5
:100D6000416A406A41503E5C1AE303E13D50405CF9
:100D700016E23BC0E9FF3CC0EAFFEFCF47F044C0BA
:100D8000EAFF43C0E9FF47C0EFFF432AD8B4442A33
:100D90003B2AD8B43C2A402AD8B4412AE3D7186A5F
:100DA000F2BE188EF29E3AC04DF03EC04FF03DC0EC
:100DB0004EF03FC050F01BDE18BEF28E015003D043
:100DC00000D0000E016EDEEF07F03F50080DF3502B
:100DD000020F016E040E036ED8B0032A01C0E9FFB2
:100DE00003C0EAFFECCF03F0ED52EFCF44F003C0B5
:100DF00045F03F50080DF350010F016E040E036ED5
:100E0000D8B0032A01C0E9FF03C0EAFFEF50036A2C
:100E1000476E03C048F03F50080DF3CF01F0040EB9
:100E200001C0E9FFEA6EEFCF46F046B0488046B217
:100E300048824850435C08E303E14250475C04E2C7
:100E400048C043F047C042F0486A476A4850435C94
:100E50001AE303E14250475C16E244C0E9FF45C093
:100E6000EAFFEFCF4BF041C0EAFF40C0E9FF4BC0C3
:100E7000EFFF402AD8B4412A442AD8B4452A472A49
:100E8000D8B4482AE3D742C001F043C002F054EF7F
:100E900007F03AC03FF03CC041F03BC040F03EC0DC
:100EA00043F03DC042F091D702C03EF001C03DF09A
:100EB000186AF2BE188EF29E3AC04DF0020E4E6EC7
:100EC00023DD18BEF28E3DC001F03EC002F0E9EF16
:100ED00007F0F86AD09E088EEA6AE96AC150C00B32
:100EE0000F09C16E070EB46E1F6A216A040E226ECE
:100EF0000C0E236E266A386A396AFF0E926E000E57
:100F0000936E946EFF0E956E968096829684C15075
:100F1000C00B0909C16EC080C082C084C09EC2805F
:100F2000000E016EC250C30B0110C26EB00ED56E22
:100F3000D76AD66A000E0409CA6E7F0ECB6EBE6AEF
:100F4000BB6A94908B90949C8B8CC3D6B1DEC8D630
:100F5000949C8B9C94908B80ABDE1A5241E0386A53
:100F6000385005081AE33834006E0036FC0E0016BF
:100F7000C250C30B0010C26E0A0E3A6EB7D6036A97
:100F80003850280FE96E000E0320EA6EC282C2B20A
:100F9000FED7C4CFEFFF382AE3D739C02EF0FF0EBB
:100FA000956E83CF2FF0010E3A6E3C6A280E3B6E91
:100FB0003E6A080E3D6E020E3F6EADD61DA210D0E9
:100FC000010E3A6E3C6A300E3B6E3E6A030E3D6E79
:100FD00060D730C0BEFF31C0BBFF936A32C08AFF0A
:040FE000BBD7030078
:020000040030CA
:0E000000240E3E1E008381000FC00FE00F4053
:00000001FF
;PIC18F4550
;CRC=3C5E  CREATED="18-abr.-15 17:34"
